{
  "contractName": "Vote",
  "abi": [
    {
      "constant": false,
      "inputs": [],
      "name": "renounceOwnership",
      "outputs": [],
      "payable": false,
      "stateMutability": "nonpayable",
      "type": "function"
    },
    {
      "constant": true,
      "inputs": [],
      "name": "owner",
      "outputs": [
        {
          "name": "",
          "type": "address"
        }
      ],
      "payable": false,
      "stateMutability": "view",
      "type": "function"
    },
    {
      "constant": true,
      "inputs": [],
      "name": "isOwner",
      "outputs": [
        {
          "name": "",
          "type": "bool"
        }
      ],
      "payable": false,
      "stateMutability": "view",
      "type": "function"
    },
    {
      "constant": true,
      "inputs": [],
      "name": "fee",
      "outputs": [
        {
          "name": "",
          "type": "uint256"
        }
      ],
      "payable": false,
      "stateMutability": "view",
      "type": "function"
    },
    {
      "constant": false,
      "inputs": [
        {
          "name": "newOwner",
          "type": "address"
        }
      ],
      "name": "transferOwnership",
      "outputs": [],
      "payable": false,
      "stateMutability": "nonpayable",
      "type": "function"
    },
    {
      "inputs": [
        {
          "name": "_fee",
          "type": "uint256"
        }
      ],
      "payable": false,
      "stateMutability": "nonpayable",
      "type": "constructor"
    },
    {
      "anonymous": false,
      "inputs": [
        {
          "indexed": false,
          "name": "_name",
          "type": "string"
        }
      ],
      "name": "LogAdd",
      "type": "event"
    },
    {
      "anonymous": false,
      "inputs": [
        {
          "indexed": false,
          "name": "_name",
          "type": "string"
        },
        {
          "indexed": false,
          "name": "_count",
          "type": "uint256"
        }
      ],
      "name": "LogVote",
      "type": "event"
    },
    {
      "anonymous": false,
      "inputs": [
        {
          "indexed": true,
          "name": "previousOwner",
          "type": "address"
        },
        {
          "indexed": true,
          "name": "newOwner",
          "type": "address"
        }
      ],
      "name": "OwnershipTransferred",
      "type": "event"
    },
    {
      "constant": false,
      "inputs": [
        {
          "name": "_name",
          "type": "string"
        }
      ],
      "name": "addCompetitor",
      "outputs": [],
      "payable": false,
      "stateMutability": "nonpayable",
      "type": "function"
    },
    {
      "constant": false,
      "inputs": [
        {
          "name": "_name",
          "type": "string"
        }
      ],
      "name": "vote",
      "outputs": [],
      "payable": true,
      "stateMutability": "payable",
      "type": "function"
    },
    {
      "constant": true,
      "inputs": [],
      "name": "getList",
      "outputs": [
        {
          "components": [
            {
              "name": "name",
              "type": "string"
            },
            {
              "name": "counter",
              "type": "uint256"
            }
          ],
          "name": "list",
          "type": "tuple[]"
        }
      ],
      "payable": false,
      "stateMutability": "view",
      "type": "function"
    }
  ],
  "bytecode": "0x608060405234801561001057600080fd5b5060405160208061132f833981018060405261002f919081019061010d565b336000806101000a81548173ffffffffffffffffffffffffffffffffffffffff021916908373ffffffffffffffffffffffffffffffffffffffff1602179055506000809054906101000a900473ffffffffffffffffffffffffffffffffffffffff1673ffffffffffffffffffffffffffffffffffffffff16600073ffffffffffffffffffffffffffffffffffffffff167f8be0079c531659141344cd1fd0a4f28419497f9722a3daafe3b4186f6b6457e060405160405180910390a38060038190555050610157565b60008151905061010781610140565b92915050565b60006020828403121561011f57600080fd5b600061012d848285016100f8565b91505092915050565b6000819050919050565b61014981610136565b811461015457600080fd5b50565b6111c9806101666000396000f3fe60806040526004361061007b5760003560e01c8063942b765a1161004e578063942b765a14610116578063ddca3f4314610141578063f2fde38b1461016c578063fc36e15b146101955761007b565b80633580feeb14610080578063715018a6146100a95780638da5cb5b146100c05780638f32d59b146100eb575b600080fd5b34801561008c57600080fd5b506100a760048036036100a29190810190610a8c565b6101b1565b005b3480156100b557600080fd5b506100be61030b565b005b3480156100cc57600080fd5b506100d5610411565b6040516100e29190610e94565b60405180910390f35b3480156100f757600080fd5b5061010061043a565b60405161010d9190610ed1565b60405180910390f35b34801561012257600080fd5b5061012b610491565b6040516101389190610eaf565b60405180910390f35b34801561014d57600080fd5b506101566105e2565b6040516101639190610fde565b60405180910390f35b34801561017857600080fd5b50610193600480360361018e9190810190610a63565b6105e8565b005b6101af60048036036101aa9190810190610a8c565b61063b565b005b6101b961043a565b6101f8576040517f08c379a00000000000000000000000000000000000000000000000000000000081526004016101ef90610f9e565b60405180910390fd5b600081511161023c576040517f08c379a000000000000000000000000000000000000000000000000000000000815260040161023390610fbe565b60405180910390fd5b6001805490506002826040516102529190610e66565b9081526020016040518091039020819055506001604051806040016040528083815260200160008152509080600181540180825580915050906001820390600052602060002090600202016000909192909190915060008201518160000190805190602001906102c392919061093b565b50602082015181600101555050507f289022564be762d7c59fe763747250d310e62d513577b2e020b3c2e1d3f81e69816040516103009190610eec565b60405180910390a150565b61031361043a565b610352576040517f08c379a000000000000000000000000000000000000000000000000000000000815260040161034990610f9e565b60405180910390fd5b600073ffffffffffffffffffffffffffffffffffffffff166000809054906101000a900473ffffffffffffffffffffffffffffffffffffffff1673ffffffffffffffffffffffffffffffffffffffff167f8be0079c531659141344cd1fd0a4f28419497f9722a3daafe3b4186f6b6457e060405160405180910390a360008060006101000a81548173ffffffffffffffffffffffffffffffffffffffff021916908373ffffffffffffffffffffffffffffffffffffffff160217905550565b60008060009054906101000a900473ffffffffffffffffffffffffffffffffffffffff16905090565b60008060009054906101000a900473ffffffffffffffffffffffffffffffffffffffff1673ffffffffffffffffffffffffffffffffffffffff163373ffffffffffffffffffffffffffffffffffffffff1614905090565b60606001805490506040519080825280602002602001820160405280156104d257816020015b6104bf6109bb565b8152602001906001900390816104b75790505b50905060008090505b6001805490508110156105de57600181815481106104f557fe5b9060005260206000209060020201604051806040016040529081600082018054600181600116156101000203166002900480601f0160208091040260200160405190810160405280929190818152602001828054600181600116156101000203166002900480156105a75780601f1061057c576101008083540402835291602001916105a7565b820191906000526020600020905b81548152906001019060200180831161058a57829003601f168201915b505050505081526020016001820154815250508282815181106105c657fe5b602002602001018190525080806001019150506104db565b5090565b60035481565b6105f061043a565b61062f576040517f08c379a000000000000000000000000000000000000000000000000000000000815260040161062690610f9e565b60405180910390fd5b6106388161080d565b50565b808060405160200161064d9190610e66565b6040516020818303038152906040528051906020012060016002836040516106759190610e66565b9081526020016040518091039020548154811061068e57fe5b90600052602060002090600202016000016040516020016106af9190610e7d565b6040516020818303038152906040528051906020012014610705576040517f08c379a00000000000000000000000000000000000000000000000000000000081526004016106fc90610f7e565b60405180910390fd5b60035434101561074a576040517f08c379a000000000000000000000000000000000000000000000000000000000815260040161074190610f5e565b60405180910390fd5b60018060028460405161075d9190610e66565b9081526020016040518091039020548154811061077657fe5b9060005260206000209060020201600101600082825401925050819055507f7868ea9821109c69d1aa9e17b2a4bab1d0ff30c8edd90291e1211595f7ae3ef68260016002856040516107c89190610e66565b908152602001604051809103902054815481106107e157fe5b906000526020600020906002020160010154604051610801929190610f0e565b60405180910390a15050565b600073ffffffffffffffffffffffffffffffffffffffff168173ffffffffffffffffffffffffffffffffffffffff16141561087d576040517f08c379a000000000000000000000000000000000000000000000000000000000815260040161087490610f3e565b60405180910390fd5b8073ffffffffffffffffffffffffffffffffffffffff166000809054906101000a900473ffffffffffffffffffffffffffffffffffffffff1673ffffffffffffffffffffffffffffffffffffffff167f8be0079c531659141344cd1fd0a4f28419497f9722a3daafe3b4186f6b6457e060405160405180910390a3806000806101000a81548173ffffffffffffffffffffffffffffffffffffffff021916908373ffffffffffffffffffffffffffffffffffffffff16021790555050565b828054600181600116156101000203166002900490600052602060002090601f016020900481019282601f1061097c57805160ff19168380011785556109aa565b828001600101855582156109aa579182015b828111156109a957825182559160200191906001019061098e565b5b5090506109b791906109d5565b5090565b604051806040016040528060608152602001600081525090565b6109f791905b808211156109f35760008160009055506001016109db565b5090565b90565b600081359050610a0981611178565b92915050565b600082601f830112610a2057600080fd5b8135610a33610a2e82611026565b610ff9565b91508082526020830160208301858383011115610a4f57600080fd5b610a5a838284611125565b50505092915050565b600060208284031215610a7557600080fd5b6000610a83848285016109fa565b91505092915050565b600060208284031215610a9e57600080fd5b600082013567ffffffffffffffff811115610ab857600080fd5b610ac484828501610a0f565b91505092915050565b6000610ad98383610e0b565b905092915050565b610aea816110dd565b82525050565b6000610afb82611071565b610b05818561109f565b935083602082028501610b1785611052565b8060005b85811015610b535784840389528151610b348582610acd565b9450610b3f83611092565b925060208a01995050600181019050610b1b565b50829750879550505050505092915050565b610b6e816110ef565b82525050565b6000610b7f82611087565b610b8981856110c1565b9350610b99818560208601611134565b610ba281611167565b840191505092915050565b6000610bb882611087565b610bc281856110d2565b9350610bd2818560208601611134565b80840191505092915050565b6000610be98261107c565b610bf381856110b0565b9350610c03818560208601611134565b610c0c81611167565b840191505092915050565b600081546001811660008114610c345760018114610c5957610c9d565b607f6002830416610c4581876110d2565b955060ff1983168652808601935050610c9d565b60028204610c6781876110d2565b9550610c728561105f565b60005b82811015610c9457815481890152600182019150602081019050610c75565b82880195505050505b505092915050565b6000610cb26026836110c1565b91507f4f776e61626c653a206e6577206f776e657220697320746865207a65726f206160008301527f64647265737300000000000000000000000000000000000000000000000000006020830152604082019050919050565b6000610d186013836110c1565b91507f6d7573742070617920656e6f75676820666565000000000000000000000000006000830152602082019050919050565b6000610d586013836110c1565b91507f696e76616c696420636f6d70657469746f722e000000000000000000000000006000830152602082019050919050565b6000610d986020836110c1565b91507f4f776e61626c653a2063616c6c6572206973206e6f7420746865206f776e65726000830152602082019050919050565b6000610dd8600c836110c1565b91507f696e76616c6964206e616d6500000000000000000000000000000000000000006000830152602082019050919050565b60006040830160008301518482036000860152610e288282610bde565b9150506020830151610e3d6020860182610e48565b508091505092915050565b610e518161111b565b82525050565b610e608161111b565b82525050565b6000610e728284610bad565b915081905092915050565b6000610e898284610c17565b915081905092915050565b6000602082019050610ea96000830184610ae1565b92915050565b60006020820190508181036000830152610ec98184610af0565b905092915050565b6000602082019050610ee66000830184610b65565b92915050565b60006020820190508181036000830152610f068184610b74565b905092915050565b60006040820190508181036000830152610f288185610b74565b9050610f376020830184610e57565b9392505050565b60006020820190508181036000830152610f5781610ca5565b9050919050565b60006020820190508181036000830152610f7781610d0b565b9050919050565b60006020820190508181036000830152610f9781610d4b565b9050919050565b60006020820190508181036000830152610fb781610d8b565b9050919050565b60006020820190508181036000830152610fd781610dcb565b9050919050565b6000602082019050610ff36000830184610e57565b92915050565b6000604051905081810181811067ffffffffffffffff8211171561101c57600080fd5b8060405250919050565b600067ffffffffffffffff82111561103d57600080fd5b601f19601f8301169050602081019050919050565b6000602082019050919050565b60008160005260206000209050919050565b600081519050919050565b600081519050919050565b600081519050919050565b6000602082019050919050565b600082825260208201905092915050565b600082825260208201905092915050565b600082825260208201905092915050565b600081905092915050565b60006110e8826110fb565b9050919050565b60008115159050919050565b600073ffffffffffffffffffffffffffffffffffffffff82169050919050565b6000819050919050565b82818337600083830152505050565b60005b83811015611152578082015181840152602081019050611137565b83811115611161576000848401525b50505050565b6000601f19601f8301169050919050565b611181816110dd565b811461118c57600080fd5b5056fea265627a7a72305820db85c9e931ab58946ddd276592dcf0fa7ed37c57c4261c2926ec38677ee1dfcc6c6578706572696d656e74616cf50037",
  "source": "pragma solidity ^0.5.0;\npragma experimental ABIEncoderV2;\n\nimport \"openzeppelin-solidity/contracts/ownership/Ownable.sol\";\n\ncontract Vote is Ownable {\n  struct Competitor {\n    string name;\n    uint counter;\n  }\n  Competitor[] competitors;\n  mapping(string => uint) ids;\n  uint public fee;\n  \n  modifier isCompetitor (string memory _name) {\n      require(keccak256(abi.encodePacked(competitors[ids[_name]].name)) == keccak256(abi.encodePacked(_name)), \"invalid competitor.\");\n      _;\n  }\n  \n  event LogAdd(string _name);\n  event LogVote(string _name, uint _count);\n\n  constructor (uint _fee) public {\n    fee = _fee;\n  }\n\n  function addCompetitor(string memory _name) public onlyOwner {\n    require(bytes(_name).length > 0, \"invalid name\");\n    ids[_name] = competitors.length;\n    competitors.push(Competitor(_name, 0));\n    emit LogAdd(_name);\n  }\n\n  function vote(string memory _name) public isCompetitor(_name) payable {\n    require(msg.value >= fee, \"must pay enough fee\");\n    competitors[ids[_name]].counter += 1;\n    emit LogVote(_name, competitors[ids[_name]].counter);\n  }\n\n  function getList() public view returns(Competitor[] memory list) {\n    list = new Competitor[](competitors.length);\n    for (uint i=0; i < competitors.length; i++) {\n      list[i] = competitors[i];\n    }\n  }\n\n}\n\n",
  "sourcePath": "/Users/iisaint/Workspace/playground/truffle/react/contracts/Vote.sol",
  "compiler": {
    "name": "solc",
    "version": "0.5.8+commit.23d335f2.Emscripten.clang"
  },
  "schemaVersion": "3.0.10",
  "updatedAt": "2019-07-16T13:51:51.798Z",
  "devdoc": {
    "methods": {
      "isOwner()": {
        "details": "Returns true if the caller is the current owner."
      },
      "owner()": {
        "details": "Returns the address of the current owner."
      },
      "renounceOwnership()": {
        "details": "Leaves the contract without owner. It will not be possible to call `onlyOwner` functions anymore. Can only be called by the current owner.     * > Note: Renouncing ownership will leave the contract without an owner, thereby removing any functionality that is only available to the owner."
      },
      "transferOwnership(address)": {
        "details": "Transfers ownership of the contract to a new account (`newOwner`). Can only be called by the current owner."
      }
    }
  },
  "userdoc": {
    "methods": {}
  }
}